{
  "contractName": "Presale",
  "abi": [
    {
      "inputs": [
        {
          "internalType": "uint256",
          "name": "_rate",
          "type": "uint256"
        },
        {
          "internalType": "address payable",
          "name": "_wallet",
          "type": "address"
        },
        {
          "internalType": "contract IERC20Metadata",
          "name": "_token",
          "type": "address"
        }
      ],
      "stateMutability": "nonpayable",
      "type": "constructor"
    },
    {
      "anonymous": false,
      "inputs": [
        {
          "indexed": true,
          "internalType": "address",
          "name": "previousOwner",
          "type": "address"
        },
        {
          "indexed": true,
          "internalType": "address",
          "name": "newOwner",
          "type": "address"
        }
      ],
      "name": "OwnershipTransferred",
      "type": "event"
    },
    {
      "inputs": [],
      "name": "owner",
      "outputs": [
        {
          "internalType": "address",
          "name": "",
          "type": "address"
        }
      ],
      "stateMutability": "view",
      "type": "function"
    },
    {
      "inputs": [],
      "name": "renounceOwnership",
      "outputs": [],
      "stateMutability": "nonpayable",
      "type": "function"
    },
    {
      "inputs": [
        {
          "internalType": "address",
          "name": "newOwner",
          "type": "address"
        }
      ],
      "name": "transferOwnership",
      "outputs": [],
      "stateMutability": "nonpayable",
      "type": "function"
    },
    {
      "stateMutability": "payable",
      "type": "receive"
    },
    {
      "inputs": [
        {
          "internalType": "uint256",
          "name": "_rate",
          "type": "uint256"
        }
      ],
      "name": "setTokenRate",
      "outputs": [],
      "stateMutability": "nonpayable",
      "type": "function"
    },
    {
      "inputs": [],
      "name": "getTokenRate",
      "outputs": [
        {
          "internalType": "uint256",
          "name": "",
          "type": "uint256"
        }
      ],
      "stateMutability": "view",
      "type": "function"
    },
    {
      "inputs": [],
      "name": "getStatus",
      "outputs": [
        {
          "internalType": "bool",
          "name": "",
          "type": "bool"
        }
      ],
      "stateMutability": "view",
      "type": "function"
    },
    {
      "inputs": [],
      "name": "togglePause",
      "outputs": [
        {
          "internalType": "bool",
          "name": "",
          "type": "bool"
        }
      ],
      "stateMutability": "nonpayable",
      "type": "function"
    },
    {
      "inputs": [],
      "name": "getBalance",
      "outputs": [
        {
          "internalType": "uint256",
          "name": "",
          "type": "uint256"
        }
      ],
      "stateMutability": "view",
      "type": "function"
    },
    {
      "inputs": [
        {
          "internalType": "address",
          "name": "_wallet",
          "type": "address"
        },
        {
          "internalType": "uint256",
          "name": "_amount",
          "type": "uint256"
        }
      ],
      "name": "withdraw",
      "outputs": [],
      "stateMutability": "payable",
      "type": "function"
    },
    {
      "inputs": [],
      "name": "buyToken",
      "outputs": [],
      "stateMutability": "payable",
      "type": "function"
    },
    {
      "inputs": [
        {
          "internalType": "uint256",
          "name": "weiVal",
          "type": "uint256"
        }
      ],
      "name": "getTokensPerEth",
      "outputs": [
        {
          "internalType": "uint256",
          "name": "",
          "type": "uint256"
        }
      ],
      "stateMutability": "view",
      "type": "function"
    }
  ],
  "bytecode": "0x6080604052633b9aca0060065568056bc75e2d631000006007553480156200002657600080fd5b5060405162001b6338038062001b6383398181016040528101906200004c919062000411565b6200006c620000606200024760201b60201c565b6200024f60201b60201c565b8260008111620000b3576040517f08c379a0000000000000000000000000000000000000000000000000000000008152600401620000aa90620004ce565b60405180910390fd5b600073ffffffffffffffffffffffffffffffffffffffff168373ffffffffffffffffffffffffffffffffffffffff16141562000126576040517f08c379a00000000000000000000000000000000000000000000000000000000081526004016200011d9062000566565b60405180910390fd5b600073ffffffffffffffffffffffffffffffffffffffff168273ffffffffffffffffffffffffffffffffffffffff16141562000199576040517f08c379a00000000000000000000000000000000000000000000000000000000081526004016200019090620005fe565b60405180910390fd5b8360018190555082600360006101000a81548173ffffffffffffffffffffffffffffffffffffffff021916908373ffffffffffffffffffffffffffffffffffffffff16021790555081600260006101000a81548173ffffffffffffffffffffffffffffffffffffffff021916908373ffffffffffffffffffffffffffffffffffffffff1602179055506001600560006101000a81548160ff0219169083151502179055505050505062000620565b600033905090565b60008060009054906101000a900473ffffffffffffffffffffffffffffffffffffffff169050816000806101000a81548173ffffffffffffffffffffffffffffffffffffffff021916908373ffffffffffffffffffffffffffffffffffffffff1602179055508173ffffffffffffffffffffffffffffffffffffffff168173ffffffffffffffffffffffffffffffffffffffff167f8be0079c531659141344cd1fd0a4f28419497f9722a3daafe3b4186f6b6457e060405160405180910390a35050565b600080fd5b6000819050919050565b6200032d8162000318565b81146200033957600080fd5b50565b6000815190506200034d8162000322565b92915050565b600073ffffffffffffffffffffffffffffffffffffffff82169050919050565b6000620003808262000353565b9050919050565b620003928162000373565b81146200039e57600080fd5b50565b600081519050620003b28162000387565b92915050565b6000620003c58262000353565b9050919050565b6000620003d982620003b8565b9050919050565b620003eb81620003cc565b8114620003f757600080fd5b50565b6000815190506200040b81620003e0565b92915050565b6000806000606084860312156200042d576200042c62000313565b5b60006200043d868287016200033c565b93505060206200045086828701620003a1565b92505060406200046386828701620003fa565b9150509250925092565b600082825260208201905092915050565b7f50726573616c653a2076616c7565206973203000000000000000000000000000600082015250565b6000620004b66013836200046d565b9150620004c3826200047e565b602082019050919050565b60006020820190508181036000830152620004e981620004a7565b9050919050565b7f50726573616c653a2077616c6c657420697320746865207a65726f206164647260008201527f6573730000000000000000000000000000000000000000000000000000000000602082015250565b60006200054e6023836200046d565b91506200055b82620004f0565b604082019050919050565b6000602082019050818103600083015262000581816200053f565b9050919050565b7f50726573616c653a20746f6b656e20697320746865207a65726f20616464726560008201527f7373000000000000000000000000000000000000000000000000000000000000602082015250565b6000620005e66022836200046d565b9150620005f38262000588565b604082019050919050565b600060208201905081810360008301526200061981620005d7565b9050919050565b61153380620006306000396000f3fe6080604052600436106100a05760003560e01c8063715018a611610064578063715018a61461019b5780638da5cb5b146101b2578063a4821719146101dd578063c4ae3168146101e7578063f2fde38b14610212578063f3fef3a31461023b576100af565b806312065fe0146100b45780633e2d7004146100df5780634e69d5601461010a57806356f0889c1461013557806361241c2814610172576100af565b366100af576100ad610257565b005b600080fd5b3480156100c057600080fd5b506100c961058f565b6040516100d69190610c2f565b60405180910390f35b3480156100eb57600080fd5b506100f4610597565b6040516101019190610c2f565b60405180910390f35b34801561011657600080fd5b5061011f6105a1565b60405161012c9190610c65565b60405180910390f35b34801561014157600080fd5b5061015c60048036038101906101579190610cb1565b6105b8565b6040516101699190610c2f565b60405180910390f35b34801561017e57600080fd5b5061019960048036038101906101949190610cb1565b61069a565b005b3480156101a757600080fd5b506101b0610765565b005b3480156101be57600080fd5b506101c76107ed565b6040516101d49190610d1f565b60405180910390f35b6101e5610257565b005b3480156101f357600080fd5b506101fc610816565b6040516102099190610c65565b60405180910390f35b34801561021e57600080fd5b5061023960048036038101906102349190610d66565b6108d3565b005b61025560048036038101906102509190610d93565b6109cb565b005b60011515600560009054906101000a900460ff161515146102ad576040517f08c379a00000000000000000000000000000000000000000000000000000000081526004016102a490610e30565b60405180910390fd5b6006543410156102f2576040517f08c379a00000000000000000000000000000000000000000000000000000000081526004016102e990610e9c565b60405180910390fd5b60075461034734600860003373ffffffffffffffffffffffffffffffffffffffff1673ffffffffffffffffffffffffffffffffffffffff16815260200190815260200160002054610af290919063ffffffff16565b10610387576040517f08c379a000000000000000000000000000000000000000000000000000000000815260040161037e90610f08565b60405180910390fd5b6000610392346105b8565b9050600360009054906101000a900473ffffffffffffffffffffffffffffffffffffffff1673ffffffffffffffffffffffffffffffffffffffff166108fc349081150290604051600060405180830381858888f193505050501580156103fc573d6000803e3d6000fd5b50600260009054906101000a900473ffffffffffffffffffffffffffffffffffffffff1673ffffffffffffffffffffffffffffffffffffffff1663a9059cbb33836040518363ffffffff1660e01b815260040161045a929190610f28565b6020604051808303816000875af1158015610479573d6000803e3d6000fd5b505050506040513d601f19601f8201168201806040525081019061049d9190610f7d565b6104dc576040517f08c379a00000000000000000000000000000000000000000000000000000000081526004016104d39061101c565b60405180910390fd5b6104f134600454610af290919063ffffffff16565b60048190555061054934600860003373ffffffffffffffffffffffffffffffffffffffff1673ffffffffffffffffffffffffffffffffffffffff16815260200190815260200160002054610af290919063ffffffff16565b600860003373ffffffffffffffffffffffffffffffffffffffff1673ffffffffffffffffffffffffffffffffffffffff1681526020019081526020016000208190555050565b600047905090565b6000600154905090565b6000600560009054906101000a900460ff16905090565b6000610693610664600260009054906101000a900473ffffffffffffffffffffffffffffffffffffffff1673ffffffffffffffffffffffffffffffffffffffff1663313ce5676040518163ffffffff1660e01b8152600401602060405180830381865afa15801561062d573d6000803e3d6000fd5b505050506040513d601f19601f820116820180604052508101906106519190611075565b60ff166012610b0890919063ffffffff16565b600a6106709190611204565b61068560015485610b1e90919063ffffffff16565b610b3490919063ffffffff16565b9050919050565b6106a2610b4a565b73ffffffffffffffffffffffffffffffffffffffff166106c06107ed565b73ffffffffffffffffffffffffffffffffffffffff1614610716576040517f08c379a000000000000000000000000000000000000000000000000000000000815260040161070d9061129b565b60405180910390fd5b806000811161075a576040517f08c379a000000000000000000000000000000000000000000000000000000000815260040161075190611307565b60405180910390fd5b816001819055505050565b61076d610b4a565b73ffffffffffffffffffffffffffffffffffffffff1661078b6107ed565b73ffffffffffffffffffffffffffffffffffffffff16146107e1576040517f08c379a00000000000000000000000000000000000000000000000000000000081526004016107d89061129b565b60405180910390fd5b6107eb6000610b52565b565b60008060009054906101000a900473ffffffffffffffffffffffffffffffffffffffff16905090565b6000610820610b4a565b73ffffffffffffffffffffffffffffffffffffffff1661083e6107ed565b73ffffffffffffffffffffffffffffffffffffffff1614610894576040517f08c379a000000000000000000000000000000000000000000000000000000000815260040161088b9061129b565b60405180910390fd5b600560009054906101000a900460ff1615600560006101000a81548160ff021916908315150217905550600560009054906101000a900460ff16905090565b6108db610b4a565b73ffffffffffffffffffffffffffffffffffffffff166108f96107ed565b73ffffffffffffffffffffffffffffffffffffffff161461094f576040517f08c379a00000000000000000000000000000000000000000000000000000000081526004016109469061129b565b60405180910390fd5b600073ffffffffffffffffffffffffffffffffffffffff168173ffffffffffffffffffffffffffffffffffffffff1614156109bf576040517f08c379a00000000000000000000000000000000000000000000000000000000081526004016109b690611399565b60405180910390fd5b6109c881610b52565b50565b6109d3610b4a565b73ffffffffffffffffffffffffffffffffffffffff166109f16107ed565b73ffffffffffffffffffffffffffffffffffffffff1614610a47576040517f08c379a0000000000000000000000000000000000000000000000000000000008152600401610a3e9061129b565b60405180910390fd5b6000479050600073ffffffffffffffffffffffffffffffffffffffff168373ffffffffffffffffffffffffffffffffffffffff161415610a8c57610a896107ed565b92505b60008211610a98578091505b8181610aa491906113b9565b90508273ffffffffffffffffffffffffffffffffffffffff166108fc839081150290604051600060405180830381858888f19350505050158015610aec573d6000803e3d6000fd5b50505050565b60008183610b0091906113ed565b905092915050565b60008183610b1691906113b9565b905092915050565b60008183610b2c9190611443565b905092915050565b60008183610b4291906114cc565b905092915050565b600033905090565b60008060009054906101000a900473ffffffffffffffffffffffffffffffffffffffff169050816000806101000a81548173ffffffffffffffffffffffffffffffffffffffff021916908373ffffffffffffffffffffffffffffffffffffffff1602179055508173ffffffffffffffffffffffffffffffffffffffff168173ffffffffffffffffffffffffffffffffffffffff167f8be0079c531659141344cd1fd0a4f28419497f9722a3daafe3b4186f6b6457e060405160405180910390a35050565b6000819050919050565b610c2981610c16565b82525050565b6000602082019050610c446000830184610c20565b92915050565b60008115159050919050565b610c5f81610c4a565b82525050565b6000602082019050610c7a6000830184610c56565b92915050565b600080fd5b610c8e81610c16565b8114610c9957600080fd5b50565b600081359050610cab81610c85565b92915050565b600060208284031215610cc757610cc6610c80565b5b6000610cd584828501610c9c565b91505092915050565b600073ffffffffffffffffffffffffffffffffffffffff82169050919050565b6000610d0982610cde565b9050919050565b610d1981610cfe565b82525050565b6000602082019050610d346000830184610d10565b92915050565b610d4381610cfe565b8114610d4e57600080fd5b50565b600081359050610d6081610d3a565b92915050565b600060208284031215610d7c57610d7b610c80565b5b6000610d8a84828501610d51565b91505092915050565b60008060408385031215610daa57610da9610c80565b5b6000610db885828601610d51565b9250506020610dc985828601610c9c565b9150509250929050565b600082825260208201905092915050565b7f50726573616c653a2050726573616c6520697320706175736564000000000000600082015250565b6000610e1a601a83610dd3565b9150610e2582610de4565b602082019050919050565b60006020820190508181036000830152610e4981610e0d565b9050919050565b7f50726573616c653a20427579207175616e74697479206973206c6f7700000000600082015250565b6000610e86601c83610dd3565b9150610e9182610e50565b602082019050919050565b60006020820190508181036000830152610eb581610e79565b9050919050565b7f50726573616c653a2041747461696e6564206d61782063617000000000000000600082015250565b6000610ef2601983610dd3565b9150610efd82610ebc565b602082019050919050565b60006020820190508181036000830152610f2181610ee5565b9050919050565b6000604082019050610f3d6000830185610d10565b610f4a6020830184610c20565b9392505050565b610f5a81610c4a565b8114610f6557600080fd5b50565b600081519050610f7781610f51565b92915050565b600060208284031215610f9357610f92610c80565b5b6000610fa184828501610f68565b91505092915050565b7f496e73756666696369656e742062616c616e6365206f662070726573616c652060008201527f636f6e7472616374210000000000000000000000000000000000000000000000602082015250565b6000611006602983610dd3565b915061101182610faa565b604082019050919050565b6000602082019050818103600083015261103581610ff9565b9050919050565b600060ff82169050919050565b6110528161103c565b811461105d57600080fd5b50565b60008151905061106f81611049565b92915050565b60006020828403121561108b5761108a610c80565b5b600061109984828501611060565b91505092915050565b7f4e487b7100000000000000000000000000000000000000000000000000000000600052601160045260246000fd5b60008160011c9050919050565b6000808291508390505b600185111561112857808604811115611104576111036110a2565b5b60018516156111135780820291505b8081029050611121856110d1565b94506110e8565b94509492505050565b60008261114157600190506111fd565b8161114f57600090506111fd565b8160018114611165576002811461116f5761119e565b60019150506111fd565b60ff841115611181576111806110a2565b5b8360020a915084821115611198576111976110a2565b5b506111fd565b5060208310610133831016604e8410600b84101617156111d35782820a9050838111156111ce576111cd6110a2565b5b6111fd565b6111e084848460016110de565b925090508184048111156111f7576111f66110a2565b5b81810290505b9392505050565b600061120f82610c16565b915061121a83610c16565b92506112477fffffffffffffffffffffffffffffffffffffffffffffffffffffffffffffffff8484611131565b905092915050565b7f4f776e61626c653a2063616c6c6572206973206e6f7420746865206f776e6572600082015250565b6000611285602083610dd3565b91506112908261124f565b602082019050919050565b600060208201905081810360008301526112b481611278565b9050919050565b7f50726573616c653a2076616c7565206973203000000000000000000000000000600082015250565b60006112f1601383610dd3565b91506112fc826112bb565b602082019050919050565b60006020820190508181036000830152611320816112e4565b9050919050565b7f4f776e61626c653a206e6577206f776e657220697320746865207a65726f206160008201527f6464726573730000000000000000000000000000000000000000000000000000602082015250565b6000611383602683610dd3565b915061138e82611327565b604082019050919050565b600060208201905081810360008301526113b281611376565b9050919050565b60006113c482610c16565b91506113cf83610c16565b9250828210156113e2576113e16110a2565b5b828203905092915050565b60006113f882610c16565b915061140383610c16565b9250827fffffffffffffffffffffffffffffffffffffffffffffffffffffffffffffffff03821115611438576114376110a2565b5b828201905092915050565b600061144e82610c16565b915061145983610c16565b9250817fffffffffffffffffffffffffffffffffffffffffffffffffffffffffffffffff0483118215151615611492576114916110a2565b5b828202905092915050565b7f4e487b7100000000000000000000000000000000000000000000000000000000600052601260045260246000fd5b60006114d782610c16565b91506114e283610c16565b9250826114f2576114f161149d565b5b82820490509291505056fea2646970667358221220b2f174a0d56ac14a8fd18dff3c24a16d53436d4a096c748d967fe2202cc35dca64736f6c634300080c0033",
  "immutableReferences": {},
  "source": "//SPDX-License-Identifier:UNLICENSED\npragma solidity ^0.8.12;\n\nimport \"@openzeppelin/contracts/token/ERC20/extensions/IERC20Metadata.sol\";\nimport \"@openzeppelin/contracts/utils/math/SafeMath.sol\";\nimport \"@openzeppelin/contracts/access/Ownable.sol\";\n\n/*\ntogglePause - Pause the presale activities\n\nFund - Fund account\nWithdraw - Withdraw from the account\nbuy - Buy tokens from the account\nsetEndTime - Modify the endate of the presale period\nsetTokenRate - Modity the rate at which the token is sold per Eth | Eth\n*/\n\ncontract Presale is Ownable {\n    using SafeMath for uint256;\n    uint256 rate;\n    IERC20Metadata Token;\n    address wallet;\n\n    uint256 totalReceived; // Total Eth/ETH Received\n\n    bool isPaused;\n    uint256 minPurchase = (10**9); //0.5 Eth/ETH\n    uint256 purchaseCap = (100 * 10**18); // 100 ETH/Eth\n\n    mapping(address => uint256) contributors;\n\n    constructor(\n        uint256 _rate, //Qty of coin to swap for 1 wei or 1 Eth during the ICO\n        address payable _wallet, //this Contract Address for investors to send Ether or Eth in other to recive ERC token in Exchange\n        IERC20Metadata _token // Pointer to the ERC20 token that would be sent to investors\n    ) notZero(_rate) {\n        require(_wallet != address(0), \"Presale: wallet is the zero address\");\n        require(\n            address(_token) != address(0),\n            \"Presale: token is the zero address\"\n        );\n\n        rate = _rate;\n        wallet = _wallet;\n        Token = _token;\n        isPaused = true;\n    }\n\n    modifier notZero(uint256 _value) {\n        require(_value > 0, \"Presale: value is 0\");\n        _;\n    }\n\n    // Set token rate\n    function setTokenRate(uint256 _rate) external onlyOwner notZero(_rate) {\n        rate = _rate;\n    }\n\n    // Get token rate\n    function getTokenRate() external view returns (uint256) {\n        return rate;\n    }\n\n    // Get the status of the Presale\n    function getStatus() external view returns (bool) {\n        return isPaused;\n    }\n\n    // Pause or Open Presale\n    function togglePause() external onlyOwner returns (bool) {\n        isPaused = !isPaused;\n        return isPaused;\n    }\n\n    //Get balance of tokens remaing in this presale Contract\n    function getBalance() external view returns (uint256) {\n        return address(this).balance;\n    }\n\n    // Deposit some tokens into this presale contract\n    receive() external payable {\n        buyToken();\n    }\n\n    // Withdraw money from the presale contract\n    function withdraw(address _wallet, uint256 _amount)\n        external\n        payable\n        onlyOwner\n    {\n        uint256 balance = address(this).balance;\n        if (_wallet == address(0)) _wallet = owner();\n        if (_amount <= 0) _amount = balance;\n\n        balance = balance - _amount;\n        payable(address(_wallet)).transfer(_amount);\n    }\n\n    // Buy token\n    /**\n     * @dev recieves Eth and requires some token to be transfered to the msg.sender\n     */\n    function buyToken() public payable {\n        // Make sure presale is currently not paused\n        require(isPaused == true, \"Presale: Presale is paused\");\n        // Must send more that minEth\n        require(msg.value >= minPurchase, \"Presale: Buy quantity is low\");\n        // Sender doesn't exceed maxCap\n        require(\n            contributors[msg.sender].add(msg.value) < purchaseCap,\n            \"Presale: Attained max cap\"\n        );\n        // Get token value\n        uint256 tokenQuantity = getTokensPerEth(msg.value);\n\n        // Recieve the Ethereum into our wallet\n        payable(wallet).transfer(msg.value);\n\n        // Pay the sender in our token\n        require(\n            Token.transfer(msg.sender, tokenQuantity),\n            \"Insufficient balance of presale contract!\"\n        );\n\n        totalReceived = totalReceived.add(msg.value);\n        contributors[msg.sender] = contributors[msg.sender].add(msg.value);\n    }\n\n    function getTokensPerEth(uint256 weiVal) public view returns (uint256) {\n        return weiVal.mul(rate).div(10**(uint256(18).sub(Token.decimals())));\n    }\n}\n",
  "sourcePath": "/Users/clinton/Sites/presale/contracts/Presale.sol",
  "compiler": {
    "name": "solc",
    "version": "0.8.12+commit.f00d7308.Emscripten.clang"
  },
  "schemaVersion": "3.4.7",
  "updatedAt": "2022-04-29T11:09:49.765Z",
  "devdoc": {
    "kind": "dev",
    "methods": {
      "buyToken()": {
        "details": "recieves Eth and requires some token to be transfered to the msg.sender"
      },
      "owner()": {
        "details": "Returns the address of the current owner."
      },
      "renounceOwnership()": {
        "details": "Leaves the contract without owner. It will not be possible to call `onlyOwner` functions anymore. Can only be called by the current owner. NOTE: Renouncing ownership will leave the contract without an owner, thereby removing any functionality that is only available to the owner."
      },
      "transferOwnership(address)": {
        "details": "Transfers ownership of the contract to a new account (`newOwner`). Can only be called by the current owner."
      }
    },
    "version": 1
  },
  "userdoc": {
    "kind": "user",
    "methods": {},
    "version": 1
  }
}